S01000006669726D776172652E73726563B7
S11300000C9434000C9451000C9451000C94510045
S11300100C9451000C9451000C9451000C94510018
S11300200C9451000C9451000C9451000C94510008
S11300300C9451000C9451000C9451000C945100F8
S11300400C9451000C9451000C94CE000C9451006B
S11300500C9451000C9451000C9451000C945100D8
S11300600C9451000C94510011241FBECFEFD8E022
S1130070DEBFCDBF11E0A0E0B1E0E8E3F3E002C0F1
S113008005900D92A031B107D9F721E0A0E1B1E0CC
S113009001C01D92A632B207E1F70E947D000C94C4
S11300A09A010C940000569A2FEF829FC0011124EC
S11300B064E670E00E94320167BD84B5806884BD47
S11300C084B5836084BD85B5826085BD08952FEFB6
S11300D0829FC001112464E670E00E94320167BD72
S11300E008951092C50083E38093C40086E0809352
S11300F0C20088E98093C100089580E00E94530003
S113010080E895E20E9471007894809110019091AA
S113011011010E946700F9CFCF93DF93FC01019096
S11301200020E9F73197E81BF90B1E161F0684F42B
S1130130DC019C012E0F3F1FC6ECD0E0E0ECF0E0A8
S11301409D919883908195FFFDCFA217B307C1F7C6
S1130150DF91CF910895CF93DF93FC0101900020AC
S1130160E9F73197E81BF90B1E161F0684F4DC012E
S11301709C012E0F3F1FC6ECD0E0E0ECF0E09D9117
S11301809883908195FFFDCFA217B307C1F780E054
S113019091E00E948C00DF91CF9108951F920F92FD
S11301A00FB60F9211242F933F934F935F936F9346
S11301B07F938F939F93AF93BF93EF93FF9380911C
S11301C0C6008A30F1F18D30E1F18337B9F4109231
S11301D011011092100183E091E00E948C00809143
S11301E01001909111014AE050E062E171E00E9437
S11301F05A0182E191E00E94AB0023C090E08F9706
S11302009C01220F331F880F991F880F991F880F95
S1130210991F820F931F909311018093100183E023
S113022091E00E948C0080911001909111014AE0AC
S113023050E062E171E00E945A0182E191E00E9483
S1130240AB00FF91EF91BF91AF919F918F917F91FF
S11302506F915F914F913F912F910F900FBE0F902F
S11302601F90189597FB072E16F4009407D077FD7E
S113027009D00E94460107FC05D03EF49095819573
S11302809F4F0895709561957F4F0895AA1BBB1BDE
S113029051E107C0AA1FBB1FA617B70710F0A61B82
S11302A0B70B881F991F5A95A9F780959095BC01A3
S11302B0CD0108954532510520F4423010F00C94DC
S11302C06501FB011082CB010895BB274A3031F44C
S11302D0992322F4BDE2909581959F4F0C9471016E
S11302E0BB27FB015527AA27880F991FAA1FA4170C
S11302F010F0A41B83955051B9F7A05DAA3308F000
S1130300A95DA193009779F7B111B1931192CB0133
S11303100C948A01DC01FC01672F71917723E1F7CA
S1130320329704C07C916D9370836291AE17BF07BE
S10B0330C8F30895F894FFCF0F
S11303380A0D005370656564207365743A200000E3
S9030000FC
